:020000040000FA
:10000000D00700204D01000067010000892A000090
:1000100000000000000000000000000000000000E0
:100020000000000000000000000000006B01000064
:1000300000000000000000006D0100009536000087
:10004000BF2F0000C72F00000000000000000000CC
:1000500000000000AD1000000000000000000000E3
:10006000DB2A0000E32A0000AB32000000000000A1
:1000700000000000000000004912000051120000C2
:100080000000000000000000372500000000000014
:100090000000000000000000D12A00001B3000001A
:1000A000A510000000000000A7380000AF380000D5
:1000B000A52B000000000000BD1300005912000035
:1000C00000F002F800F032F80CA030C8083824180C
:1000D0002D18671EA246AB4654465D46AC4201D180
:1000E00000F024F87E460F3EB6460FCC0126334280
:1000F00000D0FB1A3343A246AB461847B448000071
:10010000D44800000023002400250026103A01D323
:1001100078C1FBD8520700D330C100D50B607047BF
:100120001FB500F07CFF1FBD10B510BD034885460C
:10013000FFF7F6FF00F0AFFF00F0E6FED00700206B
:1001400003B4FFF7F1FF03BC00F048FF09480A4A77
:10015000002100A1814200D90244084802600848F9
:10016000804708480047FEE7FEE7FEE7FEE7FEE7B8
:10017000FEE70000000000200000000008ED00E0A5
:10018000B1360000C100000001E004C0091F0429CD
:10019000FBD28B0701D50280801CC90700D00270FA
:1001A000704700290BD0C30702D00270401C491EC3
:1001B000022904D3830702D50280801C891EE3E74D
:1001C0000022EEE70022DFE7002203098B422CD356
:1001D000030A8B4211D300239C464EE003460B4397
:1001E0003CD4002243088B4231D303098B421CD3F9
:1001F000030A8B4201D394463FE0C3098B4201D3EB
:10020000CB01C01A524183098B4201D38B01C01A22
:10021000524143098B4201D34B01C01A5241030999
:100220008B4201D30B01C01A5241C3088B4201D348
:10023000CB00C01A524183088B4201D38B00C01AF5
:10024000524143088B4201D34B00C01A5241411A1C
:1002500000D201465241104670475DE0CA0F00D0FF
:100260004942031000D3404253409C4600220309F8
:100270008B422DD3030A8B4212D38901FC2212BA7E
:10028000030A8B420CD3890192118B4208D3890156
:1002900092118B4204D389013AD0921100E089096E
:1002A000C3098B4201D3CB01C01A524183098B424F
:1002B00001D38B01C01A524143098B4201D34B0138
:1002C000C01A524103098B4201D30B01C01A52419B
:1002D000C3088B4201D3CB00C01A524183088B4222
:1002E00001D38B00C01A5241D9D243088B4201D3AB
:1002F0004B00C01A5241411A00D2014652411046E9
:1003000063465B1001D34042002B00D54942704741
:1003100063465B1000D3404201B50020C046C04692
:1003200002BD000038B5CB02420D1A430B1504D0B4
:100330000124E4072243002B08DB0F4CE31A0BD403
:100340001046D840FF2B00DD002038BD0023DB43E2
:100350000A4A1B1A8A41F7D24B00002801D0012219
:1003600000E000229A18074B054C9A4200D9064C2F
:10037000009400F0C5FB38BD1E040000FFFFEFBF76
:10038000E80000040000E0FFE80001041F22030C65
:1003900002D10F22000402D0030E03D004E000209B
:1003A000014670470002083A030F01D10001121FF5
:1003B000830F01D18000921E002801DB4000521EF5
:1003C000120551184205C012411810467047C10F5E
:1003D000C90700D04042012292071143D6E701210C
:1003E0008907D3E7F0B5D14C0E09A44689B0B443D0
:1003F0007ED01C096546A543FAD065462E400D46C1
:100400005D40ED0F354366463440009471D0C84CD2
:100410002142FBD0009C17016419FF25AD04641B29
:10042000069464466401A143A343012424052143A7
:1004300023430D01010F1E010D43110F03010E4354
:10044000A80B1B0981038D433446990B1A468E0372
:10045000B2439446A30B9A0394433F09BA0B029408
:100460009403A7430C465443009464467C43A64639
:10047000644604970E19D7190196009C7E43361BDB
:1004800074460797361B2701B40B0396009EA619E6
:100490000096039EB4043F19009C01D3641C009491
:1004A0006400002F01D001263443029F66467E433C
:1004B000B646049E59436E4300967600341976463C
:1004C00076003619B446DC19019E059474437646CD
:1004D000A41BA6464619079C04967443009EA61BBF
:1004E0007446641A039404465443321B664601E082
:1004F000F7E083E00092F206624603D0520901263B
:10050000324300E052090E46090A36060027B218A7
:100510007941270A2406A2184F410399009E8C0DA9
:1005200089028A187C41B10DB702BA18614158435B
:10053000029B059C5D43049B002763431B1A5C1BC5
:10054000A30EA40164187B41010B00050019594159
:100550002C0A2B069A184441844200D2491C0120DF
:100560004002814203D315230226F64302E01423FE
:100570000326F6432020C51AA9402046A840DC40A7
:100580000C431146D94008430699091473181905FC
:100590006118069CE40761401446AC40654D11D0DB
:1005A0000122944001D22C460CE00022401C514113
:1005B00001229207002C144604D1C20700D02C4619
:1005C000400840005C4A934216D3934201D1CA02CC
:1005D00012D50123069A9B069A4205DB0522520793
:1005E000564D89182C439DE0032252078918224654
:1005F00093231A4300F0F8F909B0F0BD4C0004430E
:1006000005D05C00144302D06C0803D034E0002015
:10061000E907F1E70124240449002C194908050BD6
:100620000D4303D105250005AD04641B002904D149
:10063000010B05250005AD04641B00274D0901D100
:10064000090410274D0B01D1090208374D0C01D1C7
:1006500009013F1DCD0C01D18900BF1C0D0D01D139
:1006600049007F1C3D04651B0446BC40A64620246F
:10067000E41BE04001437046009C002C00D0C9E61A
:1006800001265B0036045B08140B1C4301D12C4E81
:100690001205002B04D1130B05241205A404361BEC
:1006A00000245F0901D11B0410245F0B01D11B0240
:1006B00008345F0C01D11B01241DDF0C01D19B000C
:1006C000A41C1F0D01D15B00641C2704F61B0096BF
:1006D0001646A640B6462026341BE2401343724617
:1006E00098E606180D464D41164C7642AC4106D3AD
:1006F00096181D465D41134C7642AC4104D2124C13
:10070000009400F045F977E74C00044309D05C0001
:10071000224306D05940C90F054AC907002011439A
:100720006AE7094C009400F0EBF965E70000FF0769
:100730000000F07F000000C0FD07000093000010E3
:100740000000EDFF0000E0FF93000004F8B5FF2477
:100750002404C509FF26C209CB09254001360746F6
:100760002240234035434F40002A76D0002B74D0DE
:10077000A24272D0A34270D0002F00DA2A46012490
:10078000E405204300022143000A0902090AD21AA3
:100790004B0C7F24E31A4F4C7C44E35C5D007D23CB
:1007A0001B04D2181446131434409B18884201D3FA
:1007B0005B1C00E040004A4211466943091169434D
:1007C000ED0149154919070A4F43C502380D17466F
:1007D00047437D192F0A4F43F90C17464F43000337
:1007E0002D0340187D1951428D4201D3AD18401C94
:1007F000D90501270818BF07002D19D03C437942BD
:100800006D00521903D3401C002A13D039463F22F1
:10081000920493420BD3002B0FDC1A06120F06D062
:100820000322520780180422114300F081FAF8BD18
:100830000021ECE740084000E9E7012241001206F0
:1008400089187F2252069142F1D205214907224D93
:100850004018B4432C4332E0FFE7002F00DA2A4669
:100860001E4DA2420CD2A3420AD24C0023D0440017
:1008700004D000F011FA000A090A88E7D005F8BD93
:10088000FF2644003606B44202D84B00B34203D9D7
:100890002A4600F0E3F9F8BDB44203D1B34201D1D6
:1008A000D00510E0B34201D1002101E04100490828
:1008B000D0050843F8BD420005D0094C0A46009413
:1008C00000F01EF9F8BD0A460095F9E70A46014610
:1008D00010463BE7583F00000400001004000004ED
:1008E0000400000838B50102C21504D00123DB075B
:1008F0001943002A05DB9E239A1A07D40846D040E4
:1009000038BD0849884201D8002038BDFF22410087
:10091000054C1206914200D9044C009400F0F0F806
:1009200038BD0000FFFF7FBF6800000468000104BD
:100930001F22030C02D10F2200041CD0030E01D190
:100940000002083A030F01D10001121F830F01D1E9
:100950008000921E002801DB4000521ED205511873
:10096000021251181922904004D3491C002801D1C9
:100970004908490008467047C10FC90700D04042E6
:10098000012292071143D3E701218907D0E7000034
:10099000F8B501264C003605A419069D002800D0A4
:1009A000641C01265F003605BE19002A00D0761CA3
:1009B0000C4FBC4202D90124A40303E0BE4206D975
:1009C0000124E4032543009500F09AF8F8BD0126C0
:1009D0003605B44201D3104619462A4600F048FABB
:1009E000F8BD00000000F0FFF8B5144605460E46BD
:1009F00000F006FA02688446D0010027002803DAD6
:100A0000F10FC9073846F8BD100508D5284601255D
:100A10006D072C433146009400F072F8F8BD002EAB
:100A200002DA012000040443300D314603059943E6
:100A30000123DB029843304B181A01231B0519438D
:100A4000352803D9012039463B4630E035280DD002
:100A50002023152814D21B1A2E469E400F469F4075
:100A60002B46C3403B43C140304620E008030543CA
:100A70003B46394601D0214819E00120C00716E065
:100A80002038002809DC434299402E462030C640D9
:100A90003143284698400B4608E01E1A0B46C340D7
:100AA0000846B040002D01D0012108433946E50336
:100AB00004D50125ED072943ED0BAC43002805D0F3
:100AC0000125A84012D3002804D00CE060000DD40A
:100AD0001846F8BDA01706D4002807D15B1C414179
:100AE0005B085B0002E000205B1C414108200243E0
:100AF00060460260ECE70000010600000100008093
:100B0000F0B51FB482B005460E4617460C9C00F0A7
:100B100077F9844601680320224600070240964682
:100B20006000C00E0A0A90438B047246134201D043
:100B300010229043014360460160072080050A4669
:100B4000024014432007000F0A2807D0082805D0C8
:100B5000204670221040C000044304E0A00302D5E8
:100B6000032080050443A00E0002012212039143DA
:100B7000084208D000943A4631462846059B00F0CA
:100B800043F907B0F0BD2007000F092808D0E100A5
:100B90001BD4210109D460012BD428463146F0E74B
:100BA0002146002000F04AF933E0610601D52748CC
:100BB0002FE0E10603D5059935464D4000E07D4024
:100BC0000A280AD10025ED4307E0012000078443ED
:100BD000200602D5F10FC90701E0E90FC907E006B9
:100BE00003D51B4F00200F4313E0FF20C00508432F
:100BF0000FE0600626D42004800F04D020040AD51C
:100C00003846059909E0E00602D50020114F00E0C2
:100C100011483946B5E728463146220603D5012258
:100C2000D204114302E0012292051043E20862401F
:100C3000D20603D52409240108221443224600F0D9
:100C400017F99EE7224631462846F8E70100008062
:100C50000000F07F0000F87F0000C07FF8B501279A
:100C60004400FF05E5194C00E6197C42A54201D974
:100C70007C1203E0A64208D90124E40314430A4687
:100C800061460094FFF73CFFF8BDBD4200D3084623
:100C9000194600F0EDF8F8BDF0B5000209021402A3
:100CA000204E214F214D240E1FD1A84201D2921B6C
:100CB0000004040E03D10124E404121B0002040FFB
:100CC00001D1D21B0001840F03D101246404121B43
:100CD0008000002801DB400000E052191C02240EB5
:100CE00003D00124E4072143F0BD0124E40720439D
:100CF000A94201D29B1B09040C0E03D10124E40478
:100D00001B1B09020C0F01D1DB1B09018C0F03D146
:100D1000012464041B1B8900002901DB4900F0BD8C
:100D20005B19F0BD0000100000000400000001008D
:100D3000F8B50D46044600F063F801680346E00F7D
:100D4000CA01C007002A08DB0A0507D5204601248E
:100D5000640725430095FFF7D3FEF8BDE20D02437B
:100D6000FF2001308243C120801A42005208082728
:100D7000172A29DC2022121A264696402202120A3D
:100D80003C052243C240C00FC0070243002E15D0CD
:100D9000394301201960864014D3002E01D0521C23
:100DA00010E0E817C1436800C00F01D0002909D145
:100DB000521C002806D15208520003E0680001D5F9
:100DC000394319601046F8BD39431960E10FE00D51
:100DD000C9070843FF2101318843C121081A410096
:100DE000C90A0818C00FC007182AECD1EA0F61021F
:100DF000D207401C1143E6D140084000F8BD000076
:100E000000487047840200201FB584B000200A9C6F
:100E100006AB04AA02A90094C046C046002803D02D
:100E20000399029808B010BD0348204000F074F800
:100E300000200146F6E700000000207CCA0212D51F
:100E40004803400F002804D0C803C0430121884054
:100E50007047EFF3008000010009032109070843F0
:100E600080F30088704700040840FBD001207047E1
:100E700010B50C461107090F092904D00A2925D0FD
:100E8000082927D104E011460820FFF7D7FF21E009
:100E9000510621D5D10302D50020014610BD11060F
:100EA00001D5E10F00E0C10F900603D50020C0433B
:100EB000044606E0D00603D50020C043440800E005
:100EC0001048002906D0C043E44303E0510601D591
:100ED0000120C007214610BDD10607D5010109092F
:100EE000CC084907000E0006044309E0410F200228
:100EF0004907000A0143200E00061D22D14101438B
:100F00000846E7E7FFFFFF7F10B50446C046C0462E
:100F10002046FFF715F910BD10B500F009F800F0F4
:100F200001F810BD10B5002801D000F057F810BD31
:100F300010B5022803D0410103D50DA112E0002015
:100F400010BD010101D50FA10CE0C10001D511A117
:100F500008E0810001D512A104E0400001D513A1F1
:100F600000E0002115A000F040F8012010BD0000B5
:100F7000496E76616C6964204F7065726174696F47
:100F80006E000000446976696465204279205A65E4
:100F9000726F00004F766572666C6F77000000001C
:100FA000556E646572666C6F77000000496E6578F7
:100FB00061637420526573756C7400005349474631
:100FC00050453A2041726974686D657469632065A3
:100FD0007863657074696F6E3A20000001491820CB
:100FE000ABBEFEE726000200704770B505460C4612
:100FF0000A2000E06D1C00F018F8002D06D02878BB
:101000000028F7D102E0641C00F00FF8002C02D099
:1010100020780028F7D10A2000F007F870BD10B53D
:10102000FFF7EEFE0021016010BD08B569460870AB
:101030000320ABBE08BD70B58D180478401CA20714
:10104000920F01D10278401C231106D10378401C75
:1010500003E00678401C0E70491C521EF9D1002B8B
:1010600015D002780C2634408A1A401C0C2C03D070
:10107000A401121B9B1C08E004782402121B401CD4
:10108000F8E714780C70491C521C5B1EF9D5A94274
:10109000D3D3002070BD80B502F00AFB02F02EFD14
:1010A000002080BD80B500F005F880BD80B500F05F
:1010B00002F880BD70477047F8B501F0B1F800281C
:1010C00002D01BA002F0BAFC01F0C1F8002802D047
:1010D0001FA002F0B3FC0020064623E04D490A5C45
:1010E0007508009028469D30C1B232242046C94F71
:1010F000B8473B46009847490F187A789535E9B2CA
:1011000020461D46A847BA783046A630C1B22046D0
:10111000A847FA783046B730C1B22046A8470098B1
:10112000001D761C3828D9D1002001B0F0BDC04682
:10113000464D3531313420544F55434820536F6666
:10114000745265736574204572726F720D0A0000E7
:10115000464D3531313420544F554348205472693F
:101160006D204C6F6164204572726F720D0A000031
:10117000FEB5002005463EE0019021A02946234A05
:1011800090476C0820469D30C1B2322702AE3846E7
:1011900032461F4B9847317801981E4A11541EA0C1
:1011A0001A4A90479534E1B238463246184B984770
:1011B000019818490C18317861701AA0134A9047A9
:1011C0002846A630C1B238463246114B984731788E
:1011D000A17017A00D4A90472846B730C1B23846D3
:1011E00032460B4B98473178E17014A0074A90477C
:1011F0000198001D6D1C3828BED1002003B0F0BD41
:1012000069203D2578200D0A000000003D3A0000CD
:10121000C52400008803002053313D2578200D0AA5
:101220000000000053323D2578200D0A0000000028
:1012300053333D2578200D0A0000000053343D252E
:1012400078200D0A0000000080B500F009F880BD8C
:1012500080B500F006F880BD80B500F003F880BDD1
:101260007047704770470000B0B504462A480068D0
:101270000B49FEF7A9FF604328490B6800221C4672
:101280000B689C42FCD001D9E41A04E0E41A03255F
:10129000ED434D596419A2188242F0D3B0BDC04647
:1012A0001027000070B504461C4D2E681A480068CF
:1012B0000A49FEF789FF6043002132462E68B24298
:1012C000FCD001D9921B04E0921B0323DB43EB58B3
:1012D000D21851188142F0D370BDC046A0860100DB
:1012E000B0B504460C4800687D21C900FEF76CFFCC
:1012F00060430A490B6800221C460B689C42FCD0E4
:1013000001D9E41A04E0E41A0325ED434D596419A8
:10131000A2188242F0D3B0BD7C02002018E000E0A9
:10132000002804D105E000220270401C491E00295B
:10133000F9D17047B0B500280BDB1F23034001240F
:101340009C401B4B1C60032304469C43194BE31831
:1013500006E00F230340083B0324A343134C1B194F
:10136000C400182525408901C9B2A940FF24AC401A
:101370001D68A5430D431D60012A08D1002813DB19
:101380001F210840012181400B480160B0BD0028A9
:101390000ADB1F210840012181408020064A1150AC
:1013A000BFF34F8FBFF36F8FB0BDC0461CED00E0A1
:1013B00080E200E000E400E000E100E080B500F041
:1013C00077FF80BDF8B5282424212625114F20461B
:1013D0002A46B8471521402601232046324601F00F
:1013E000D7FD7B20C0436C30C2B227212046B847CE
:1013F0001F2220462146B8470C2110222046B8471C
:10140000204629463246B847182184222046B8474C
:10141000F8BDC0464536000070B501242503084ECE
:101420003046294601F03DF82046FFF759FF304687
:10143000294601F03AF82046FFF752FF70BDC0463A
:10144000000C0240F0B595B00C460F900E260E969B
:101450006643CF48825D322008210D9102F0F2F8F8
:10146000224611901546B735A6347821C8436D3011
:101470005708394695319D3787231093119B002BD0
:1014800070D111910A940B950C920124304620439F
:10149000BF490A5C32200925294602F0D3F8109989
:1014A0006D31002801D008465CE008950991B848E4
:1014B0008619B27832207E2102F0C4F8002850D17B
:1014C0001098C01FC2B232200B2102F0BBF80028D6
:1014D00047D10794FDB2322014AA294600F0F2FF4A
:1014E00000283ED1F0781499014030790843C2B207
:1014F0003220294602F0A6F8002832D1069611982B
:10150000C6B2322014AA314600F0DCFF002828D1F0
:10151000069A50791499014090790843C2B232205A
:10152000314602F08FF800281BD1109FF81CC1B281
:1015300032200D241191224602F084F8002810D1A7
:10154000381DC1B238461330C2B232200591174659
:1015500002F078F8002804D1049600F0F7FC002887
:1015600003D00998C0B215B0F0BD0026F0B218281B
:1015700013D80220FFF7B4FE322014AA109900F00D
:10158000A1FF002801D000F0D4FC761C14A800783C
:1015900040B20028109BE9DA0BE0109B19465A3143
:1015A0001846783040B214AA127852B282420846E5
:1015B000D8DC581CC1B2322012AA039100F082FF7D
:1015C0000028CED100F02CFE0028CAD112A8007845
:1015D0002D2802D312A92C200870C14908183721E0
:1015E0000191405C02900A282ED8322014AA294684
:1015F00000F068FF0028B4D1069AD0791499014010
:10160000107A0843C2B23220294602F01BF80028A3
:10161000A7D10298401F052800D926E14000C04606
:10162000784480884000874405002001CC00C10038
:101630002001D70032200B22119902F003F8002874
:101640008FD132203D220AE102981B283DD832205A
:1016500014AA294600F036FF002800D081E7069A38
:10166000D07914990140507A0843C2B232202946F9
:1016700001F0E8FF002800D073E702980C380F282B
:1016800000D9F2E04000C04678448088400087449A
:101690009800EC00AE00EC00B900EC00C400EC00D7
:1016A0000F00EC001000EC00CF00EC001000100068
:1016B000C0E732200D22119901F0C4FF002800D0AC
:1016C0004FE7322005993A46CAE00298322835D8C9
:1016D000322014AA294600F0F5FE002800D040E789
:1016E000069AD07914990140907A0843C2B2322008
:1016F000294601F0A7FF002800D032E702981D38E4
:10170000152800D9B1E0C0467844007940008744EC
:1017100079AC4DAC84AC63AC4DAC42AC9A0AAC0A2B
:10172000AC4DAC4DAC4232200B22119901F08AFF36
:10173000002800D015E7109819308EE002983C2858
:1017400000D992E0322014AA294600F0BBFE0028FE
:1017500000D006E7069AD07914990140D07A084360
:10176000C2B23220294601F06DFF002800D0F8E611
:1017700002983438082800D977E0C04678440079C8
:101780004000874434720872137207720800C04622
:10179000580100208DE732200C22119901F052FFF0
:1017A000002800D0DDE63220252258E032200C222D
:1017B000119901F047FF002800D0D2E632205D22C7
:1017C0004DE032200B22119901F03CFF002800D09F
:1017D000C7E632200F2242E032200C22119901F09C
:1017E00031FF002800D0BCE63220092237E0322049
:1017F0000B22119901F026FF002800D0B1E61098C5
:1018000067302AE032200B22119901F01BFF0028DB
:1018100000D0A6E63220262221E032200B221199A8
:1018200001F010FF002800D09BE610984C3014E027
:1018300032200C22119901F005FF002800D090E61B
:1018400010982F3009E032200B22119901F0FAFE96
:10185000002800D085E610983230C2B232200599B7
:1018600001F0F0FE002800D07BE600F06FFB0028BE
:1018700000D076E60026F0B2182811D80220FFF733
:101880002FFD322014AA109900F01CFE002800D071
:101890004FE3761C14A8007840B20028EBDA0BE086
:1018A000109801465A31783040B214AA127852B2D8
:1018B0008242084600DD55E6322614AA30460399D6
:1018C00000F000FE002800D04BE60298401F3728A9
:1018D00000D955E103A14000085A40008744C046A2
:1018E000000000203A00500143004C005001550018
:1018F00050015D005001630050016A00500170000A
:101900005001760050017C005001850050018E008E
:1019100094005001B0005001B9005001C2005001C4
:10192000CB005001D3005001DB005001E300EB007D
:101930005001F3005001FB005001030150010B0165
:10194000500128015001300150013801500140017F
:101950005001480114A8017806200290052013299F
:1019600000D80CE10CE114A80178062002900720B1
:10197000182900D303E103E114A80078092102919A
:101980001B2800D9FCE00D98F9E014A801780A2082
:10199000202900D308900898F1E014A801780D20C0
:1019A00002900C20D1E014A80078172800D30E9CD8
:1019B0000294E5E014A801781120029010205FE065
:1019C00014A8017811200290122061E014A8017877
:1019D00015200290142073E014A8017815200290BD
:1019E0001620202900D3CAE0CAE014A801781920E3
:1019F00002901820262900D8C1E0C1E014A801787F
:101A0000192002901A2063E014A800781B2102918B
:101A1000292800D2B4E0322014AA294600F052FD51
:101A2000002800D09DE5069AD07914990140907A5B
:101A30000843C2B23220294601F004FE1C2173E0A3
:101A400014A801781C2002901D201A2900D396E0CA
:101A500096E014A80178202002901F20192900D8B0
:101A60008DE08DE014A801782020029021201C290F
:101A700000D384E084E014A801782420029023207D
:101A80001D297CD97CE014A801782420029025200F
:101A90001E2974D274E014A801782820029027200F
:101AA00020296CD96CE014A8017828200290292004
:101AB000232964D264E014A801782B2002902A2004
:101AC00024295CD95CE014A801782B2002902C20FA
:101AD000262954D254E014A801782F2002902E20F9
:101AE00025294CD94CE014A801782F2002903020F1
:101AF000272944D244E014A800782A2802963FD32C
:101B0000322014AA294600F0DDFC002800D028E588
:101B1000069AD07914990140D07A0843C2B2322093
:101B2000294601F08FFD33210291002828D018E5C5
:101B300014A8017833200290342016291FD21FE008
:101B400014A80178372002903620162917D917E0FB
:101B500014A801783820172900D3019001980EE0CD
:101B600014A801783B2002903A20152907D907E0F4
:101B700014A801783B2002903C20192900D3029040
:101B80000C98EE49029A0A540F98012804D1EC48A7
:101B900002994018401E0BE00298401E0F9902293E
:101BA00003D1E74908183C3002E0E449081838300E
:101BB0000478322014AA049900F084FC002800D094
:101BC000CFE4069A107B14990140507B083C2246D2
:101BD00082405018C2B23220049901F033FD00282F
:101BE00000D0BEE4082C61D87C4424796400A7446A
:101BF000040F1A1D20232E3A490032200022119989
:101C000001F020FD002800D0ABE41098533035E0FF
:101C100032200122119901F015FD002800D0A0E426
:101C200010982C302AE03220032212E032200622C3
:101C30001BE032200D2229E032201B22119901F0F5
:101C400001FD002800D08CE43220332218E032203D
:101C50003622119901F0F6FC002801D0FFF781FC33
:101C6000322066220CE032206C22119901F0EAFC4D
:101C7000002801D0FFF775FC10984630C2B2322020
:101C800005990DE010985230C2B23220119901F03E
:101C9000D9FC002801D0FFF764FC322005993A46B0
:101CA00001F0D0FC002801D0FFF75BFC00F04EF9FA
:101CB000002801D0FFF755FC0026F0B2182811D8F3
:101CC0000220FFF70DFB322014AA109900F0FAFB56
:101CD000002800D02DE1761C14A8007840B200281E
:101CE000EBDA09E010995A3114A8007840B20028C4
:101CF000084601DBFFF736FC322014AA039900F0F6
:101D0000E1FB002801D0FFF72CFC0A98C4B2322076
:101D100013AA214600F0D6FB002801D0FFF721FCD2
:101D200013A800788027384014A90A787F2632400B
:101D300002433220214601F085FC002801D0FFF744
:101D400010FC0C987D49085C1D2874D807998140C7
:101D50007C4A11426FD0322014AA214600F0B2FB17
:101D6000002801D0FFF7FDFB14A8027850083A4084
:101D700002433220214601F065FC002801D0FFF724
:101D8000F0FB0B98C4B2322013AA214600F09AFB54
:101D9000002801D0FFF7E5FB13A80078384014A90C
:101DA00009780E4006434808301AC2B23220214654
:101DB00001F048FC002801D0FFF7D3FB322014AA21
:101DC000049900F07FFB002801D0FFF7CAFB032035
:101DD0000C99484359490C18A17B14A8007801427A
:101DE0000CD0E17B401A14A90870C2B232200499C9
:101DF00001F028FC002801D0FFF7B3FB322014AA21
:101E0000294600F05FFB00280998109B01D0FFF7DE
:101E1000A9FB207C14990143CAB2322029461C46F2
:101E200001F010FC6D342146002801D0FFF73BFB88
:101E30000146FFF738FB04288DD90F99022901D1FB
:101E4000382888D2404908183321415C0422D24303
:101E5000805C000208430F99FEF7B6F90F90020A62
:101E60003220119901F0EEFB002801D0FFF779FB39
:101E70000F98C2B23220059901F0E4FB002801D08E
:101E8000FFF76FFB00F062F8002801D0FFF769FB55
:101E9000002011901198C0B2182811D80220FFF725
:101EA0001FFA322014AA109900F00CFB002840D130
:101EB0001198401C119014A8007840B20028E9DA6B
:101EC000322014AA039900F0FDFA002801D0FFF790
:101ED00048FB14A80178079A0A4051184908017074
:101EE0000B98C1B2322013AA119100F0EBFA00282E
:101EF00001D0FFF736FB13A80078384014A90A7800
:101F0000324002433220119901F09CFB002801D09D
:101F1000FFF727FB322013AA214600F0D3FA00284E
:101F200001D0FFF71EFB14A8007830401399081A5F
:101F30003BE710986D30FFF715FBC046000000200E
:101F4000E000002080400030700000201CB53220EE
:101F50007E2101AA00F0B6FA7F21C94374318024A2
:101F600000280BD101982043C2B232207E2101F01B
:101F700069FB7434002800D104462146C8B202B07F
:101F800010BD0000F0B587B0029303AB07C306A8ED
:101F9000002101707F20C44320463430C1B2322575
:101FA00055268D4F28463246B84720463530C1B2B7
:101FB00028463246B84720464530C1B22846324608
:101FC000B84720464630C1B205222846B847743487
:101FD000802500F025F9002800D0F9E0049F03983F
:101FE0000128019522D10026804C81A511E0012015
:101FF000B0400599084206D038463146FFF722FA2C
:10200000002800D0E2E0A25D2846314601F016FD2E
:10201000761C0D2EEBD9019D2C46743400F000F98E
:10202000002800D0D4E0FFF7A3F801E0FFF744F860
:102030000C9804903226432102223046664CA04779
:10204000681CC2B241213046A0472F46059DEAB226
:1020500008213046A047280AC2B209213046A047CD
:102060000F2130463A46A0471021059130463A46A6
:10207000A0471121039130463A46A047122130462D
:102080003A46A047132130463A46A047142130462D
:102090003A46A047152130463A46A0471621304619
:1020A0003A46A047172130463A46A0471821304605
:1020B0003A46A047192130463A46A0471A213046F1
:1020C0003A46A0471B2130463A46A0471C213046DD
:1020D00000913A46A0471F2148223046A0472027BA
:1020E0001E2230463946A0472121282530462A465F
:1020F000A04729213046039AA0470A22039230467E
:102100002946A0470B2150223046A0470C213046DB
:102110003A46A0473E2706AD304639462A4600F0EB
:10212000D1F90698059C2043F022024030463946FA
:10213000294B98473046039F39462A4600F0C2F99A
:102140002A78224330463946234B98470298012883
:102150000FD13224092506AA2046294600F0B2F9FB
:102160000198403006990143CAB22046294601F041
:1021700069FA049801281FD10198801DC6B2322443
:1021800006AD204631462A4600F09CF928783822D0
:1021900002432046314601F055FA45262046314695
:1021A0002A4600F08FF928780099084062220243FD
:1021B0002046314601F046FA32202D21192201F045
:1021C00041FA06A001F03AFC002401E0019C7F34B2
:1021D000E0B207B0F0BDC046453600002D3E2054A9
:1021E000756E696E67204F4B210D0A0000000020BC
:1021F00043732025783D25780D0A0000B0B54A4C80
:1022000040252046294600F04CF90220FFF72CF823
:102210002046294600F049F90520FFF761F8B0BDD6
:102220007CB532240A2501AE20462946324600F00C
:1022300049F93078202202432046294601F002FA6B
:1022400004460120FFF74CF8204602B070BD7CB573
:1022500001AC0026267001F00FFB0A20FFF740F8C2
:1022600032205E21224600F02DF9F42400281CD1F2
:102270002046743801990143CAB232205E2101F030
:10228000E1F9002811D101252846FFF729F832206D
:102290005E2101AA00F016F9002806D101A80078F5
:1022A000284200D0344601F0CDFA204602B070BD7D
:1022B00070470000F0B58BB006AF142538462946AC
:1022C000FDF780FF384600F0F4F81C2001F012F909
:1022D0000024089402200790412080010690124EAD
:1022E0003046394600F024F84021304600F0DDF851
:1022F00001AF38462946FDF765FF384600F0D9F8AA
:1023000003940A4802900125680404902420019057
:102310003046394600F00CF8032120462A46FFF7E4
:1023200009F80BB0F0BDC046000C0240010F0000E0
:1023300070B50022D2434F4B984257D04C680F23C0
:1023400025461D40012D06D10C6801252D02465958
:10235000264346514C6825461D40022D26D10C6867
:102360000D7C002D04D02125ED004659264304E0C4
:1023700054402125ED004659264046510C680D7900
:102380002D062D0F04D04B25AD004659264304E001
:1023900054404B25AD004659264046510C685440E8
:1023A00001252D024659264046514C681C400B68B9
:1023B000042C04D14324A40005591D4304E05340D8
:1023C0004324A40005591D4005510B680124240530
:1023D0008D68A54204D10924640105591D4304E018
:1023E00053400924640105591D4005510F231B0268
:1023F0004C681C409C423BD10B688C7BE40705D1A8
:1024000053402724E40005591D4003E02724E4003D
:1024100005591D4305510B688C7BA40705D4534017
:102420004F24A40005591D4003E04F24A400055982
:102430001D4305510B688C7B640705D4534013245E
:10244000240105591D4003E01324240105591D43AF
:1024500005510B68897B090705D453404D2189003C
:1024600042581A4003E04D21890042581A43425015
:1024700070BDC046400C02402122120183588B439C
:1024800083507047024601204302D2580A40002A76
:1024900000D1104670474122920080580840C0B2D7
:1024A00070474522920081507047112212018150DD
:1024B000704704210022026041608260C2600274A1
:1024C00070470000FEB51446054602AE317000218B
:1024D00000F0E4FA7D20C7000D48012231463B465A
:1024E00000F020FAF42600280ED101940124284699
:1024F000214600F0D3FA0648019922463B4600F0F7
:1025000011FA002800D10646304603B0F0BDC0469F
:1025100000BC004070B5144605468031CAB20F2693
:10252000314601F08FF8284631462246FFF7CAFFB0
:10253000002070BD704780B500F0AEFA80BDF0B5E8
:102540008FB00991112109010023435001690291C3
:1025500001690124A14301610A21079251430891B5
:102560000390806A000C0F2101910840801C0A90A2
:10257000E0430090401C0B9006930493059340E0C9
:102580000E930D94A6B20A983146FDF71DFE07463C
:102590000998816808980C91FDF716FE3146FDF701
:1025A00013FE401D0A21FDF70FFEBD1C0024A842AA
:1025B0000DD37821C91BC01B841E8C4207D9012072
:1025C00001027400A2B28A420E9B19D18EE00798D4
:1025D0003146FDF7F9FD2919FDF7F6FD0C9D291A85
:1025E000421B854200D811460B9881420E9B0D98E4
:1025F00005D200290694049305900B9108D074002D
:102600005B1CD8B20828BBD309988568059801E0FF
:1026100006940493C4B20A982146FDF7D5FD0746F7
:1026200007982946FDF7D0FD05462146FDF7CCFD6C
:102630000646342070436421FDF7C6FD0699C9B2F1
:102640004A1C121AC81B400803E00123022F08D3BA
:10265000401EC7B2BA42F8D3431CFF22104200D03A
:102660000346DFB20120B94240D3C91BC9B2B94207
:102670003CD90E9114212846FDF7A6FDB208710839
:10268000A31C984214D9009B1B1B1818039B9B6A20
:102690001B0E1C46019D2C40844200D318460006A8
:1026A000019B1B061840039DAC6A9C430443AC622B
:1026B000FF2003061206D21800040904091801407D
:1026C0001143380208430E990843039A1063072008
:1026D000049B0340516A8143194351620120029BCC
:1026E0000340116981431943116100200FB0F0BD0F
:1026F000002100280CD00421820409D40521C20441
:1027000006D40321020503D4810A01200840704742
:102710000846704770B515460E46044630780028C6
:1027200003D0022020610020206120690821884315
:1027300072680A400243226131461431204600F09B
:1027400027F831462831204600F032F8E06A0E4979
:102750000140F06B00020D4A02400A43E26220464B
:1027600031462A46FFF7EBFE01460120002900D042
:1027700070BD112000012158012291432150206990
:1027800010432061002070BDFF00F0FF00FF0F002C
:10279000F0B5F7221302426A9A43F0C9096825434B
:1027A00035433D430D431D4015434562F0BD0000D8
:1027B00010B5826A0B4B13408A681206CC68240459
:1027C00014430A692243084C14401C438462826A01
:1027D000064B13400A6849681143054A0A401A43E8
:1027E000826210BD00F0F0F0FF0F0F0FFFFF7F7F40
:1027F00000008080A3480169012908D1007B4000C6
:10280000034901439D484268916303210160704779
:10281000010400009B490969012915D10121090220
:1028200002688A4208D9954A5268FF319163FF21B4
:10283000C9430268511806E090488269521E0A4353
:1028400041688A63022101607047C04644208D4977
:10285000085C002803D0087B410001200CE00A69D5
:1028600002200323002A00D018460123002A00D1A9
:102870001346097B49001943012292020A437F490A
:102880004B689A630860704710B57C48046944221D
:102890007C498B5C9C421BD204695B1E1B1BCB18C2
:1028A00040241B5D4468A36303695B1C03610469E6
:1028B0008B5C9C420CD30022026103220624002B75
:1028C00000D022460B690221002B00D01146016086
:1028D00010BDC0466948816802698A420CD36949C3
:1028E0000A690421002A04D04168012252028A6345
:1028F00005210022026101607047C04610B5044600
:102900004821FEF70DFD4420002121542170616013
:10291000A160217321610120C207C005A262E062AB
:10292000216410BDF0B585B01D4616460F460490D3
:10293000524C201D1C21FEF7F3FC61690120002987
:1029400000D098E00498416901204206114200D06D
:1029500091E00123636100202060049A211DC4C11D
:10296000A661029020617F200002D1690143D161FC
:102970001802516A81435162EF4301935802039058
:1029800009207F1C00D176E066687569F5612846EC
:10299000FFF7AEFE002856D1206806283FD8C04673
:1029A0007844007940008744032406291930360012
:1029B000FFF74CFF33E0A068216981420BD2314818
:1029C0000069E9072FD000282DD12069411C216121
:1029D000E168085CB063FFF77DFF20E0E8071ED0E8
:1029E0002848006900281AD10398B06305202060A8
:1029F00015E0E80713D0FFF747FF10E0E8070ED017
:102A000020461830FFF706FF09E00398054206D07C
:102A10000020606103E0E80701D0FFF7EBFE60698A
:102A20000028ADD11DE0A907D5D50128D3D1206953
:102A3000E168F26B019B9B031A42CCD10A542069D6
:102A4000401C2061C7E7B0690D490140B16128050C
:102A500009D4A80407D4E80102980AD50399B16300
:102A600007E0029807E0022004990861002008614D
:102A700002986061012005B0F0BDC046E002002070
:102A8000FC80FFFF3003002081B000200090009800
:102A90000028FCD001B0704770470000B0B50D466B
:102AA000044607480078002801D100F007FF0549D7
:102AB0000D610C73044802680448FFF72BFEB0BD9B
:102AC000CA030020300300207C02002000BC00402C
:102AD00080B500F001F880BD704780B500F066F861
:102AE00080BD80B500F063F880BD70B50C4605462A
:102AF00000206860A06861680143E06808432168BD
:102B00000143206908436169014369600320400271
:102B1000696881430120800208436860A069FDF76D
:102B200033FF0646E0698000FDF72EFF0146304680
:102B3000FDF70CFE3F21090601F086FCFDF7D2FEF1
:102B40000146A961A069FDF73FFB800870BD002127
:102B500041617047B0B5044600254020256065609E
:102B6000A560E0602561656100F07EFCA061E56123
:102B7000B0BDB0B50BE0036908242342FBD00B784D
:102B80000468FF25AC431C430460521E491C002A04
:102B9000F1D1026902210A42FBD042698A434261B3
:102BA0000020B0BD80B500F02BF980BD70477047A4
:102BB000F8B52F4C46E0002000F00AF93220402101
:102BC0000A4600F03FFD0520FEF78AFB22A0A04741
:102BD00028263B276D46304639462A46FFF79AFCA1
:102BE0002A783046394600F043FD297821A0A047D5
:102BF0002548A04728780421084206D023A000F0E9
:102C00001DFF00F06DF868460078810704D526A006
:102C100000F014FF68460078010704D529A000F0F1
:102C20000DFF684600780007400F01D000F068FDF6
:102C300000F07CF832204021002200F003FD01204A
:102C400000F0C6F820210348FFF725FC0028B2D089
:102C5000F8BDC046000C02402D3E204C504344209D
:102C60004465746365746564210D0A2000000000EA
:102C70003D3A00002D3E4A5245475F4C504344497F
:102C800052513A20257800008C4900002D3E204CFE
:102C9000504344204952512052584348414E4745E1
:102CA00020534554210D0A002D3E204C5043442012
:102CB00049525120415451415245432053455421DA
:102CC0000D0A00002D3E204C504344204952512013
:102CD000524644455420534554210D0A000000003B
:102CE000BCB52824262101AD20462A46FFF712FC58
:102CF00027216A462046FFF70DFC28788101009ABB
:102D00008918CAB2810802A000F098FEBCBDC04676
:102D10002D3E204C5043442044656C7461206973FF
:102D20003A202578202578200D0A0000FEB5FEF710
:102D300073FB28242421009114221E4E2046B04704
:102D400025213A2520462A46B04702AF00200190AF
:102D50003870192220462946B0473C2530222046AB
:102D60002946B047204629463A46FFF7D3FB397833
:102D700011A000F063FE34212046009AB0473521AF
:102D800032222046B0473E2110222046B0473F2144
:102D900004222046B047372113222046B04738216D
:102DA0001A222046B047392122222046B0470198F6
:102DB00003B0F0BD713600004A5245475F4C5043A6
:102DC00044524654494D4552202578200D0A0000B2
:102DD000B0B501210D038D4C012808D10120FEF76B
:102DE0007FFAA9B22046FFF75CFB052004E0A9B2F8
:102DF0002046FFF75AFB0120FEF772FAB0BDC0462D
:102E000070470000F0B587B001AC07C42824082142
:102E10000025F94E204605912A46B0471221802709
:102E200020463A46B047132120463A46B047012192
:102E3000204600952A46B0470A21204604973A4684
:102E4000B0470198012805D0002808D12820092181
:102E5000602202E028200921612200F0F3FB0298A1
:102E60008000C2B22824092520462946B047039F86
:102E70003A7820462946B0477A7820462946B04716
:102E8000BA7820462946B047FA7820462946B04706
:102E90003A7920462946B0477A7920462946B047F4
:102EA000D64FBA7820462946B047FA7820462946B8
:102EB000B0473A7920462946B0477A7920462946D4
:102EC000B04701210E222046B0470D212046049F25
:102ED0003A46B0470A20FEF703FA06AD2046059CA5
:102EE00021462A46FFF7EEFA61372878204200D0C3
:102EF000009FF8B207B0F0BDF0B585B00C46039066
:102F0000282512218026E14F28463246B847132152
:102F100028463246B8470121019100222846B84789
:102F20000A21029128463246B8470927302228460E
:102F30003946D64B984728463946039AD34FB84767
:102F40000C2228460199B8473B460D2128463246B7
:102F50009847029F3846FEF7C3F904AE2846394623
:102F60003246FFF7AFFA7F20C5437435307810281A
:102F70000AD100252E4605E0A21928200921FFF7D5
:102F8000A1FA761C102EF7D1E8B205B0F0BDC0460C
:102F9000F8B51F4616460C4605466A46FFF792FAF4
:102FA000002F02D00098304301E00098B0436946FA
:102FB0000870C2B22846214600F044FBF8BD80B537
:102FC00000F006F880BD80B500F026F880BD000056
:102FD00010B50E4C20212046FFF754FA012806D1E7
:102FE0000B480121017020212046FFF745FA0421FA
:102FF0002046FFF747FA012806D106480121017053
:1030000004212046FFF738FA10BDC046000C0240EC
:10301000C0030020C9030020704780B500F044F9C8
:1030200080BD0000F0B585B0282612210025974FFD
:1030300030462A46B847132130462A46B847012170
:103040000191304603952A46B8470A21029180240F
:1030500030462246B8477F20C0431330C2B209250C
:1030600030462946B847202230462946B8470C2228
:1030700030460199B8470D21304601942246B847A1
:103080000220FEF72DF904AC304602992246FFF7E4
:1030900019FA2078052822D1824DAA1C2824092655
:1030A000124F20463146B847EA1C20463146B84701
:1030B0002A1D20463146B8476A1D20463146B8478A
:1030C000AA1D20463146B847A878E97841402879BA
:1030D000484069794140C8B2A979884202D0019834
:1030E000743003900398C0B205B0F0BDC524000051
:1030F00010B5F42400F084F8002801D008A004E002
:10310000FFF790FF002804D00D4800F097FC204600
:1031100010BD00F017F80028F9D10446F7E7C046C3
:103120002D3E2020312020464D353131345F434F34
:103130004D4D5F455252206661696C200D0A0000BA
:103140008F490000F0B585B02824122180254F4F0B
:1031500020462A46B847132120462A460095B847FC
:103160000121019100222046B8470A2103912046FF
:103170002A46B8477F20C04302901330C2B20926C6
:1031800020463146B847702220463146B847454D63
:10319000AA7820463146B847EA7820463146B847F3
:1031A0002A7920463146B8476A7920463146B847E1
:1031B000AA7920463146B8470C2220460199B847E3
:1031C0000D212046009AB8470220FEF789F804AD89
:1031D000204603992A46FFF775F902997431287839
:1031E000012806D12F48C21D28200921FFF76AF9BE
:1031F0000021C8B205B0F0BD45360000C103002073
:10320000FEB5282412210026204F20463246B8471A
:10321000132120463246B84701252046294632462A
:10322000B8470A21019180222046B847092152223D
:103230002046B8470C2220462946B8477F20C6437F
:10324000F01DC2B20D212046B8472846FEF748F8C7
:1032500002AD204601992A46FFF734F974362878E2
:10326000022810D10AA000F0E9FB282409250D4E00
:10327000204629463246FFF725F9721C204629468A
:10328000FFF720F90026F0B203B0F0BD453600008C
:103290002D3E2077616B6575702073756363200D1B
:1032A0000A000000C1030020704780B500F0F1F96A
:1032B00080BD0000F8B504462168042008292DD8F7
:1032C000084600F031F8164DB848E860B84FEF6096
:1032D00028680C26B043042101432960206800F0CF
:1032E00019F96068B14CB0498C608F6007221202F6
:1032F00010400B68934303430B6000F0D1F9EB4897
:1033000001680020074A914208D82968314205D057
:10331000EC60EF602868B0432860002001B0F0BD89
:103320002000024000366E01B0B501460420082995
:1033300000D9B0BDFDD8C0467944097949008F4411
:103340000404040428151549610097490B680020FE
:1033500001221342EDD1E64B8B60E64B8B600B688C
:1033600013430B60CA68002AFCDAE2E78E490B6857
:10337000002004221342DCD1DD4B8B60DD4B8B60DF
:103380000B6813430B604A6901231B031A42FAD0EE
:10339000CFE785494B68002002221342C9D10120A2
:1033A00003070C6A1C430C62F0232C4CE558C00246
:1033B0008543E55023690725AB432361E423E558A2
:1033C0000543E550CA488860CA4888604868104389
:1033D000486041E074490B68002008221342A8D1DC
:1033E000C34B8B60C34C8C600D6815430D608B60C4
:1033F0008C604A6804239A434A608A6940231A42CF
:10340000FBD096E768494B6800200422134290D114
:10341000012000070B6A03430B62F0200F4B1C587E
:103420008025AC431C5018680724A0431860E42092
:103430001C582C431C50AE488860AE4B8B604C68C7
:1034400014434C608A6940242242FBD088608B6020
:1034500008680822904308600020B0BD1C0C0240A0
:103460000021016041607047B0B51A4908684309FE
:1034700007221340000644170020002C25DBC0461D
:103480007B441B795B009F44010B0D1EC868000C38
:103490000323034002205840800012A3185814E070
:1034A0000F4812E048690C4B03400120C0030B4C4D
:1034B0002588AB4209D0A5884B2040020024AB42AE
:1034C00003D0204601E00120C0030968090A114029
:1034D000C840B0BD00180240FF030000A80710005C
:1034E00000127A000048E801006CDC0200093D008F
:1034F000808D5B0006490B1D2022104200D019462A
:103500000B689043012282401A430A607047C0460C
:103510002018024010B50421082840D8214A13463B
:103520001433002108283AD81F49C046784400794E
:1035300040008744130D0F111D27260404006C481A
:1035400088606C4888600A68E0208243602023E03D
:10355000103202E00C3200E0083213461868C860EE
:1035600063488860634888600868E022904314E0FC
:103570005F4888605F4888600A68E02082432020B6
:103580000AE0121D108848615948886059488860CF
:103590000A68E0208243402010430860002108466A
:1035A00010BDC046A8071000001802405A5A00007B
:1035B000A5A500007CB532240A2501AE2046294687
:1035C0003246FEF77FFF30788022024320462946AC
:1035D00000F038F8002002B070BD000070B503287C
:1035E0002CD8C04678440079400087440106132156
:1035F00028201421032200231EE028241425012260
:10360000204629461346FFF7C3FC0222002320462A
:10361000294611E0282414250126002320462946A6
:103620003246FFF7B5FC022220462946334603E026
:103630002820142103220123FFF7AAFC0A20FDF70A
:103640004FFE70BD1CB501AC627021700021FFF708
:1036500025FA7D20C300B14802222146FFF762F916
:103660000146F420002900D1084602B010BDC04632
:1036700070B5144605464031CAB20F263146FFF7F1
:10368000E1FFC034E2B228463146FFF7DBFF0020FD
:1036900070BD704780B500F001F880BD7047000034
:1036A00080B5FFF7E1FE9C49086080BD7C020020E8
:1036B00080B50C4800680C4908600C480C49C16092
:1036C0000C49C1600121C90202680A430260FFF788
:1036D000E7FF094809494160002181600521016037
:1036E00080BDC046BC0710000C18024020000240FC
:1036F0005A5A0000A5A5000010E000E0FFFFFF00FF
:10370000F8B52BA000F09AF90020FFF767FFFDF74E
:1037100059FE0320FFF762FFFFF7EAFC0446002C86
:1037200003D028A000F08AF929E0294D6A78297889
:1037300028A02C4EB0472C4C2046B0472B79EA7875
:10374000A97868796F46386028A0B047E9792DA03C
:10375000B0472046B047AB1C00202D4A0146FFF77A
:1037600051FB0446002C0AD12AA000F067F9002082
:103770002D4D2946FFF7C0FB0446002C05D0002044
:10378000FFF72CFF204601B0F0BD28A000F056F94D
:1037900000262BA404E0A95D204600F04FF9761C1A
:1037A000102EF8D1104800F049F900242046E7E730
:1037B0002D3E205459504520412043415244210D73
:1037C0000A0000002D3E206661696C200D0A000091
:1037D000C10300202D3E2041545141203D20257839
:1037E000202578003D3A00008C4900002D3E2055F0
:1037F0004944203D202578202578202578202578EB
:10380000200D0A002D3E2053414B203D20257800FD
:103810001C0200202D3E204155544820535543435F
:103820004553530D0A000000780300202D3E20422E
:103830004C4F434B5F44415441203D200000000069
:10384000257820001CB50120FDF74AFD32205F21BC
:1038500001AAFEF737FEF42400280AD101A8007857
:10386000FE22024032205F21FFF7ECFE002800D14B
:103870000446204602B010BD1CB532205F2101AACB
:10388000FEF720FEF42400280AD101A800780122C6
:10389000024332205F21FFF7D5FE002800D1044605
:1038A000204602B010BD80B500F005F880BD80B59F
:1038B00000F002F880BD70477047000070B5134DEE
:1038C0002878002821D1124C2046FFF717F81E2037
:1038D000FFF710FE4420002626540120C105207069
:1038E0000C4A6660A260C007A062E1620A480268F2
:1038F0000A482146FEF70EFF002804D02E7008A0CB
:1039000000F09CF870BD0120287070BDCA03002033
:103910003003002040420F007C02002000BC004029
:1039200069326320696E6974206661696C0D0A00F2
:10393000F0B58DB00D463D4E002812D00021002874
:1039400019DA0A2D17D10121C907884211D138A0EF
:1039500004A90CC80CC10288807888700A800B24E6
:1039600053E004A93020087001223046FFF701F926
:103970005AE040420121019100221446074600927C
:1039800029461039561A4E410121002800D101461E
:1039900002900E4004E038462946FCF71FFC07461B
:1039A00001200021002F00DC08462A460A3A891A25
:1039B00051410140314301291ED10A2D04D138461D
:1039C0002946FCF70BFC03E002982946FCF7FCFBB8
:1039D000FE230B40302057220A2B00D310464018FC
:1039E000E1B204AA5054641C0A2DD4D0029829468E
:1039F000FCF7EAFB009AC3E70198002804D0E0B284
:103A000004A92D220A54641C084EE4B2FF3409E0D4
:103A1000E0B204A9085C03A9087001223046FFF750
:103A2000A8F8641EFF2CF3D10DB0F0BD008000405B
:103A30002D323134373438333634380083B070B5F2
:103A400087B004460BA80EC00BA806902A4D20781C
:103A5000252808D000284AD0694608700122284647
:103A6000FFF787F833E06078641C252817D05828C2
:103A70000DD0632816D0782809D0732818D0642870
:103A800027D10698011D069100680A2104E00698D6
:103A9000011D069100681021FFF74AFF17E003A9F6
:103AA0002520DAE70698011D0691006804A9D4E7ED
:103AB0000698011D0691066806E005A90870012216
:103AC0002846FFF756F8761C30780028F5D1641C9C
:103AD000BDE702A925200870012628463246FFF7D7
:103AE00048F8207801A9087028463246B8E707B0A0
:103AF00070BC01BC03B0004700800040F0B591B03D
:103B00000BA80124047000260D960C960CAD2846D7
:103B1000FFF7A6FC0D9603260C962846FFF7CAFB76
:103B20000CAD14212846FCF74DFB2846FEF7C1FCDE
:103B30001C20FFF7DFFC2C74B0020C9012200D90BB
:103B4000684E30462946FEF7F3FB0720C043B16AB2
:103B5000014006221143B162F16A01401143F16252
:103B600000F0DCFBFEF7A6FBFDF756FCFEF746FB7C
:103B7000FEF756FB002802D05B48FFF75FFFFEF719
:103B800066FB002802D05948FFF758FF58A0604E46
:103B9000B047282037210CAD2A46FEF793FC297840
:103BA0005CA0B04761A0B047FFF7C0F8684604606A
:103BB0005F4D0023204621462A46FEF7E3F9002800
:103BC00003D05CA0FFF73AFFFEE760A0FFF736FFE7
:103BD000FEF714FB684604600026304621462A465C
:103BE0003346FEF7CFF9002802D15E48FFF726FFE3
:103BF0005D4806705D48039606707D200590800044
:103C00005B4C0290A04701273846FFF7E1F80520FA
:103C1000A047FFF7CFFC32261821019106AC04948F
:103C200030462246FEF74EFC21785248FFF706FF49
:103C30002078FCF7D4FB504A504BFCF7D3FBFCF741
:103C400071FB044616214E4D30462246A8471421EA
:103C500030462246A847152130462246A84730461E
:103C600001992246A847132130462246A84712212F
:103C700030462246A847192130462246A84711213E
:103C800030462246A8471A2130462246A8471B2123
:103C900030462246A847102130462246A8470F2129
:103CA00030462246A8471C2130462246A847172105
:103CB00030462246A8470498017832A02246FFF7F2
:103CC000BDFE0598C0002A4988470A218024304655
:103CD0002246A8472449049424480078012800D1AA
:103CE000BEE2CBE2000C024056490000374900001A
:103CF000464D3531313420544F55434820524541CB
:103D00004445522044454D4F2056380D0A000000CE
:103D10003D3A00002D3E2052656164657220566573
:103D20007273696F6E203D20256400000D0A00004B
:103D3000FF3F00002D3E20546F75636820496E6977
:103D400074204552524F520D0A0000002D3E20545F
:103D50006F75636820496E6974205375636365737A
:103D6000730D0A0075490000C0030020C90300203C
:103D7000E112000034470000CDCCCCCCCCCCDC3FF1
:103D8000453600004368392054687273683A203021
:103D9000782558202D3E20307825580A0000000054
:103DA0003C46322507210BAA28460591E44FB84727
:103DB00003210AAA2846B847042109AE28463246FC
:103DC000B847052108AA2846B847062107AA284669
:103DD000B847307840B2002807DA322004217F2229
:103DE000FFF730FC0398401C039027460BA800788F
:103DF00040B20028049C00DAAEE10AA800783842FC
:103E00000BD020467E30C2B232200321FFF71AFCCD
:103E1000CC48FFF713FE0AA8007881070BD520468F
:103E20007D30C2B232200321FFF70CFCC648FFF7F9
:103E300005FE0AA8007841070BD520467B30C2B2A8
:103E400032200321FFF7FEFBC048FFF7F7FD0AA869
:103E5000007801070BD520467730C2B2322003210B
:103E6000FFF7F0FBBA48FFF7E9FD0AA80078C106A2
:103E70000BD520466F30C2B232200321FFF7E2FBA0
:103E8000B448FFF7DBFD0AA8007881060FD520466D
:103E90005F30C2B232200321FFF7D4FBFC48FFF7AA
:103EA000CDFD05200121FEF745FB0AA8007841065B
:103EB0000FD520463F30C2B232200321FFF7C2FBAC
:103EC000FC48FFF7BBFD06200121FEF733FB0AA8E3
:103ED000007840B2002807DA322003217F22FFF762
:103EE000B1FBF548FFF7AAFD09A8007838420BD0CE
:103EF00020467E30C2B232200421FFF7A3FBEF48F8
:103F0000FFF79CFD09A8007881070BD520467D307E
:103F1000C2B232200421FFF795FBE948FFF78EFD7E
:103F200009A8007841070BD520467B30C2B2322069
:103F30000421FFF787FBE348FFF780FD09A800781D
:103F400001070BD520467730C2B232200421FFF79B
:103F500079FBDD48FFF772FD09A80078C1060BD593
:103F600020466F30C2B232200421FFF76BFBD748E6
:103F7000FFF764FD09A80078800609D520465F3068
:103F8000C2B232200421FFF75DFBD148FFF756FD96
:103F900008A8007838420BD020467E30C2B23220CA
:103FA0000521FFF74FFBCB48FFF748FD08A8007835
:103FB00081070BD520467D30C2B232200521FFF7A4
:103FC00041FBC548FFF73AFD08A8007841070BD52B
:103FD00020467B30C2B232200521FFF733FBBF48B9
:103FE000FFF72CFD08A8007801070BD52046773095
:103FF000C2B232200521FFF725FBB948FFF71EFDAD
:1040000008A80078C1060BD520466F30C2B2322016
:104010000521FFF717FBB348FFF710FD08A800784C
:10402000810610D520465F30C2B2322005252946D0
:10403000FFF708FBAC48FFF701FD02212846FEF719
:1040400079FA08A8007841060FD520463F30C2B261
:1040500032200521FFF7F6FAA448FFF7EFFC06200F
:104060000221FEF767FA08A8007840B2002807DAB4
:10407000322005217F22FFF7E5FA9D48FFF7DEFC9D
:1040800007A8007838420BD020467E30C2B23220DA
:104090000621FFF7D7FA9748FFF7D0FC07A800786A
:1040A00081070BD520467D30C2B232200621FFF7B2
:1040B000C9FA9148FFF7C2FC07A8007841070BD561
:1040C00020467B30C2B232200621FFF7BBFA8B4874
:1040D000FFF7B4FC07A8007801070BD5204677301E
:1040E000C2B232200621FFF7ADFA8548FFF7A6FCE1
:1040F00007A80078C1060BD520466F30C2B2322027
:104100000621FFF79FFA7F48FFF798FC07A8007881
:1041100081060BD520465F30C2B232200621FFF760
:1041200091FA7948FFF78AFC07A800780A99099A5A
:104130000A43089911430143080644D030E6C046BB
:10414000C52400004A4800006F4800009448000061
:10415000B9480000CB4800006CA0FFF76FFC32208C
:1041600007217F22FFF76EFAFEF748F8FEF758F8AE
:10417000002802D04848FFF761FCFEF768F80028E5
:1041800002D04648FFF75AFCFEF7D0FD68460760AC
:10419000002528463946424A2B46FDF7F3FE002803
:1041A00002D14048FFF74AFC3F4805703F48057080
:1041B0000298FDF795F82846FEF70AFE0120FDF764
:1041C0008FF8FFF7F7F90420FDF78AF8A01DC1B2B8
:1041D00032200AAD2A46FEF775F92878059908407D
:1041E00007280BD1A01CC2B2322545212846FFF773
:1041F00029FA20460A30C2B2422107E03225452181
:1042000062222846FFF71EFA42210A222846FFF7BB
:1042100019FA0398C0B20E2822D132264021059106
:1042200030460A46224B98470520FDF759F82046AC
:104230001230C2B24525304629461D4B984703200F
:10424000FDF730F8A01CC2B230462946184DA847E9
:104250001420FDF745F80022304605990392A8473F
:1042600004210C48FEF717F9002800D198E500203A
:104270000E4908700120FDF733F80B490878012832
:1042800000D029E5FEF794FC07490020087023E5DB
:10429000DD480000000C024056490000374900008C
:1042A000FF3F000075490000C0030020C903002043
:1042B00045360000EF4800000149000013490000A6
:1042C00025490000374800005C4800008148000094
:1042D000A6480000574700007A4700009D470000AD
:1042E000C0470000D1470000E2470000F34700004C
:1042F000044800001548000026480000454700001B
:10430000684700008B470000AE4700002D3E204567
:10431000525220697271210D0A000000F0B589B077
:1043200001AC14212046FBF74DFF1C20FFF7E2F8FB
:104330002046FEF7BEF801262674300503900220C1
:104340000290300201901E4D28462146FDF7F0FFF5
:104350000720C743286A29463840062528430862B3
:104360002046FEF7A6F8700201900296144E3046E1
:104370002146FDF7DDFF706A384028437062032054
:10438000FFF7B8F801AC2046FEF7E4FBC02004902C
:104390000020039004210291102101910690FFF763
:1043A00063F807904B20C0010890064D284621462F
:1043B000FEF79BFB2846FEF7CAFB09B0F0BDC046DE
:1043C000000C02400080004038B50D460446FCF762
:1043D00017FD0168E00FCA01C007002A2EDB09059E
:1043E0002DD503214907084302462002010E08D1BA
:1043F0003F210446890652180002030E01D10446EB
:1044000052182002000F03D17F2024014006121809
:104410002002800F03D1FF20A400000612180949D2
:10442000200201D4640000E05218204601246407F1
:104430008843254310430095FCF762FB38BD2046B6
:1044400038BD00000000800070B50125ED07420076
:104450004B00120E25D01B0E25D0FF2A1FD0FF2B9C
:104460001DD004004C402DD4441A04D2001B09195D
:104470005A4053405A40C60D00020C0228432C43B8
:10448000D31ADC40051920D2280A02D3401C6D063D
:1044900021D0761EF6058019FE2A06DA70BD00F0DE
:1044A00023F800F03AF800F03BF84600FF24240619
:1044B000A642F3D3304AC026F605801B0CB4FCF7A5
:1044C0001FFB7CBD694000F06BF801200543C5412E
:1044D000521C761CD8E764089C40C90161408900E1
:1044E000D7D10124A043D4E7EC114600A64210D84E
:1044F0004E00A6420DD89A4203D0FF2A00D00800F1
:1045000070BD04004C40FBD51C4A0CB4FCF7F8FA13
:104510007CBD1A4AFCF7A2FB70BD1B0EFF2BE3D03B
:10452000FF2AE1D0461AAE4215D04E0015D0460003
:1045300016D00E00464002D5694000F0C7F8461A72
:1045400001D2801B8919D2180CD0C60D0C020002B2
:104550002843531E95E700F076F8460004D170BD5D
:10456000080001E0A94340184600360E02D101219F
:10457000FFF72AFF70BD00BF01000010010000041A
:1045800070B50125ED0742004B00120E2AD01B0E1C
:104590002AD0FF2A24D0FF2B22D004004C4025D45F
:1045A000441A05D26C40001B09195A4053405A4026
:1045B000C60D00020C02A8432C43D31ADC40051B95
:1045C00005D5AD001FD36D08761E521E3DD0F605F1
:1045D000280A01D2801970BD70416D0609D070BDE6
:1045E00000F045F800F061F800F062F86940FFF76C
:1045F0003BFF9C4009026140490001D0401E70BD54
:104600000124A04370BD6D081DD001202B0C01D1E9
:104610002D0410302B0E01D12D0208302B0F01D1AB
:104620002D01001DAB0F01D1AD00801CEB0F01D19E
:104630006D00401C361A121A6D00680AF505401903
:10464000012A0DDB70BD002070BD360AF607680A2E
:104650000125AD05284330430221FFF7B5FE70BDAB
:10466000C026F60580192149FCF762FB70BDEC11EC
:104670004600A64215D84E00A64212D89A4208D04B
:10468000FF2A05D008006840410001D0090EE3D0A0
:1046900070BD04004C40FBD4154A0CB4FCF730FA52
:1046A0007CBD134AFCF7DAFA70BD1B0EFF2BDED07F
:1046B000FF2ADCD08842C6D04E00E5D04600E1D0CB
:1046C0000E00464002D56940FFF739FF461A02D274
:1046D0006E40801B8919D21805D0C60D0C0200024D
:1046E000A843531E6AE7A943401AB5E70200002019
:1046F000020000048182838485868788898B8C8D63
:104700008E8F919293959697999A9C9D9FA0A2A324
:10471000A5A7A8AAACAEB0B2B3B5B7B9BCBEC0C26B
:10472000C5C7C9CCCED1D4D7D9DCDFE2E6E9ECF0FD
:10473000F3F7FAFE7468726573686F6C6F64202516
:1047400078200D0A002D3E205331302072656C65B3
:10475000617365210D0A002D3E2053302072656C77
:1047600065617365210D0A002D3E205331312072A1
:10477000656C65617365210D0A002D3E2053312063
:1047800072656C65617365210D0A002D3E20533101
:10479000322072656C65617365210D0A002D3E2023
:1047A00053322072656C65617365210D0A002D3EE0
:1047B000205331332072656C65617365210D0A00E9
:1047C0002D3E2053332072656C65617365210D0A9F
:1047D000002D3E2053342072656C65617365210D98
:1047E0000A002D3E2053352072656C65617365218A
:1047F0000D0A002D3E2053362072656C656173658D
:10480000210D0A002D3E2053372072656C656173BF
:1048100065210D0A002D3E2053382072656C6561BC
:104820007365210D0A002D3E2053392072656C6599
:10483000617365210D0A002D3E2053313020746FC5
:10484000756368696E67210D0A002D3E2053302084
:10485000746F756368696E67210D0A002D3E2053E1
:10486000313120746F756368696E67210D0A002D00
:104870003E20533120746F756368696E67210D0A9D
:10488000002D3E2053313220746F756368696E6766
:10489000210D0A002D3E20533220746F7563686924
:1048A0006E67210D0A002D3E2053313320746F7541
:1048B0006368696E67210D0A002D3E205333207412
:1048C0006F756368696E67210D0A002D3E205334B1
:1048D00020746F756368696E67210D0A002D3E2094
:1048E000533520746F756368696E67210D0A002D5A
:1048F0003E20533620746F756368696E67210D0A18
:10490000002D3E20533720746F756368696E6721F0
:104910000D0A002D3E20533820746F756368696E50
:1049200067210D0A002D3E20533920746F7563688E
:10493000696E67210D0A00464D3531313420544FE0
:10494000554348205472696D204C6F616420457254
:10495000726F720D0A00464D3531313420544F5577
:10496000434820536F6674526573657420457272B4
:104970006F720D0A002D3E20546F756368205265DA
:104980006C6F616420537563636573730D0A002D4A
:104990003E2032202020464D353131345F434F4D8B
:1049A0004D5F455252206661696C200D0A0000007F
:1049B000D0490000000000208002000036100000F6
:1049C000004B0000800200205005000004010000A0
:1049D000B200010007220F0108F0108006A02D018F
:1049E00003040507080A0B0C0E0F101213141617F8
:1049F000181A1B1D1E1F212223252627292A2C2D8C
:104A00002E30313234353638393A3C6210310A09A9
:104A10001B1816141413133631312D2D2B29282869
:104A200026262525256C6C676262625A5E5A5A57A3
:104A3000535353505350504D4B4D4B4B4B4D052200
:104A40004801103176B733BAABECEC6E6E66747415
:104A5000555585D94C4CDBDB848484CDCD9EE9E96A
:104A6000E9AB9CABAB0AB1B1B198B19898B709B7B3
:104A7000090909B70522890140080A0B0B0C0C0C27
:104A80000D01B20E01021E0F0113090A3E213F82E1
:104A90000C4301134A0111589020010000F003F06B
:104AA00004F001020304F0000200010F300F400F78
:104AB000102030400F040400021C90040800031C66
:104AC00090041000041C90042000051C9004400079
:104AD000061C9004800007541600968170A0040004
:104AE00002091CA3040A1CA3080B1CA3100C1C9392
:104AF000200D70025DFF0100050000093D0000006F
:04000005000000C136
:00000001FF
